:020000040000FA
:100000000A128A11EA2FF100711807280B288312AF
:10001000031308160E288312031308127108F00048
:1000200001300310F00CFF3E031D11287018192831
:100030001D288312031388162028831203138812A5
:100040007108F00002300310F00CFF3E031D23285E
:1000500070182B282F2883120313081732288312B5
:10006000031308137108F00003300310F00CFF3E77
:10007000031D352870183D28412883120313881763
:10008000442883120313881308140830F000F00B7F
:1000900047288312031308104230F000F00B4E285B
:1000A00000000800831203138F018E0107150F3023
:1000B00083120313E100E10B5B285E288312031314
:1000C0000711871D6428652861281014871969287D
:1000D0006A28662810100F08E5000E08E40064087E
:1000E000F0006508F1000030F11BFF30F200F30072
:1000F00001300A128A1105210A128A11730883122B
:100100000313A7007208A6007108A5007008A400D8
:100110003C30A300DE30A200D230A1008930A00024
:100120000A128A1189240A128A11831203132308DE
:10013000C1002208C0002108BF002008BE004030D6
:10014000BD000030BC000030BB000030BA000A1215
:100150008A11AC220A128A11831203133D08D700B8
:100160003C08D6003B08D5003A08D4000A128A158C
:1001700043260A128A11831203135508E300540818
:10018000E2006408F0006508F1000030F11BFF3068
:10019000F200F30001300A128A1105210A128A11B5
:1001A000730883120313A7007208A6007108A50044
:1001B0007008A4003F30A3004C30A200CC30A10056
:1001C000CD30A0000A128A1189240A128A118312E2
:1001D00003132308D7002208D6002108D5002008E1
:1001E000D4000A128A1543260A128A1183120313B5
:1001F0005508E5005408E4006208013EDF0063088A
:100200000318013E003EE0000800F80078080319DA
:100210000A290B291F29F31F0E290F291F297009ED
:10022000FA007109FB007209FC007309FD00FA0A6B
:100230000319FB0A0319FC0A0319FD0A272973088D
:10024000FD007208FC007108FB007008FA007308DA
:10025000720471047004031D2E292F2938290030DF
:10026000F3000030F2000030F1000030F000BE2951
:100270009630F4007408F9004A290130F40074083B
:10028000F90701300310FD0CFC0CFB0CFA0CFF3ECF
:10029000031D4229FE307D05031D4F2950293D29AC
:1002A0006C290130F4007408F9070130FA070030B6
:1002B00003180130FB07003003180130FC07003041
:1002C00003180130FD0701300310FD0CFC0CFB0C82
:1002D000FA0CFF3E031D6429FF307D05031D7129C3
:1002E000722951297E290130F9020130F4000310EE
:1002F000FA0DFB0DFC0DFD0DF40B7729FC1B81297C
:1003000082298829023079020318872988297329CC
:1003100079188B298C299429FF30FA05FF30FB05C9
:100320007F30FC05FF30FD050310F90C7908F4005F
:10033000F501F601F70118300310F40DF50DF60D77
:10034000F70DFF3E031D9C297408FA047508FB0491
:100350007608FC047708FD0478080319B029B12950
:10036000B629F31FB429B529B629FD177D08F30076
:100370007C08F2007B08F1007A08F0000800EC30FD
:10038000FC008830FD000A168A11DA270A128A1149
:10039000831203136E080A128A1535240A128A1171
:1003A000FC000030FD000A168A11DA270A128A11B1
:1003B0000D30FC008A30FD000A168A11DA270A1275
:1003C0008A110A168A1111270A128A110D30FC00AF
:1003D0008930FD000A168A11DA270A128A1183125F
:1003E00003136D080A128A1535240A128A11FC00BB
:1003F0000030FD000A168A11DA270A128A11173016
:10040000FC008A30FD000A168A11DA270A128A11C6
:100410000A168A1111270A128A116930FC008930E4
:10042000FD000A168A11DA270A128A1183120313B1
:10043000061D1B2A1C2A262A1A30FC008A30FD00C1
:100440000A168A11DA270A128A112F2A1330FC00A1
:100450008A30FD000A168A11DA270A128A110A1652
:100460008A1111270A128A11BA30FC008930FD0066
:100470000A168A11DA270A128A1183120313061A3E
:10048000422A432A4D2A1A30FC008A30FD000A16FF
:100490008A11DA270A128A11562A1330FC008A3090
:1004A000FD000A168A11DA270A128A110A168A1121
:1004B00011270A128A117A30FC008930FD000A16D1
:1004C0008A11DA270A128A118D2AF830FC00893045
:1004D000FD000A168A11DA270A128A11A62AFF30AD
:1004E000FC008930FD000A168A11DA270A128A11E7
:1004F000A62AE430FC008930FD000A168A11DA27AA
:100500000A128A11A62A0630FC008A30FD000A165B
:100510008A11DA270A128A11A62A0A168A11B52721
:100520000A128A1183120313E800E9016908003AEC
:1005300003199B2A832A6808013A0319652A033A9A
:1005400003196F2A013A0319792A832A0A168A1194
:1005500011270A128A1108008312031341088039F7
:10056000C2004208CB004108C2004207C300430852
:10057000D200C01FBC2ABD2ABE2A52145208031939
:10058000C22AC32AD32A520A031DC72AC82AD02A3C
:100590000030C1000030C0000030BF000030BE009D
:1005A000C017C101DB2A0030C1000030C00000309C
:1005B000BF000030BE003D088039C2004208CB06B3
:1005C0003D08C2004207C3004308D300BC1FE92A0C
:1005D000EA2AEB2A531453080319EF2AF02A002BB6
:1005E000530A031DF42AF52AFD2A0030BD0000300D
:1005F000BC000030BB000030BA00BC17BD01082BA6
:100600000030BD000030BC000030BB000030BA003C
:100610003D083C043B043A04031D0F2B102B292BEF
:100620000030C1000030C0000030BF000030BE000C
:100630008030C0047F30C1044B08C2004208C104AE
:100640004108BD004008BC003F08BB003E08BA009E
:10065000882C5208031D2D2B2E2B372B0030BD006C
:100660000030BC000030BB000030BA00882C5208BB
:10067000C200C3014308C50053084202C400031C62
:10068000C50344087F3ECC0045080318013E003EE8
:10069000CD004108CA004008C9003F08C8003E0814
:1006A000C7000030C1000030C0000030BF00003083
:1006B000BE000030D1000030D0000030CF0000304C
:1006C000CE00D301AD2B53080319672B682B882B61
:1006D0000130C2000310C70DC80DC90DCA0DC20BF1
:1006E0006A2B0130C2000310BE0DBF0DC00DC10D3D
:1006F000C20B732BD11F7D2B7E2B7F2B3E14013021
:10070000C2000310CE0DCF0DD00DD10DC20B812B29
:100710003D084A02031D962B3C084902031D962BF7
:100720003B084802031D962B3A084702031C992BED
:100730009A2BA92B51173A08C7023B08031C3B0F01
:10074000C8023C08031C3C0FC9023D08031C3D0FB6
:10075000CA020130C2004208D3071A305302031CF8
:10076000B22BB32B632B4A084904480447040319EE
:10077000BA2BBB2BDA2B4E14DA2B0130C20003103C
:10078000BE0DBF0DC00DC10DC20BBF2BD11FC92B9C
:10079000CA2BCB2B3E140130C2000310CE0DCF0D5F
:1007A000D00DD10DC20BCD2BFF30CC070318CD0AD5
:1007B000FF30CD07C01FDD2BDE2BBD2BD301D11F9A
:1007C000E22BE32BFF2BFF304E05C200FF304F051D
:1007D000C300FF305005C4007F305105C5004508F7
:1007E0004404430442040319F62BF72BFA2BD301DC
:1007F000D30AFF2B3E1CFD2BFE2BFF2BF72B5308A0
:100800000319032C042C352C0130BE0700300318CB
:100810000130BF07003003180130C0070030031853
:100820000130C107411C152C162C352C3E08C20086
:100830003F08C3004008C4004108C5000130C6009D
:10084000450DC50CC40CC30CC20CC60B202C4508AE
:10085000C1004408C0004308BF004208BE00013088
:10086000CC070318CD0A0030CD074D08803AFF00B1
:1008700080307F02031D3E2CFF304C02031C412CB4
:10088000422C502CFF3083120313CC000030CD00DB
:100890000030C1000030C0000030BF000030BE009A
:1008A000831203134D08803AFF0080307F02031D3E
:1008B0005B2C01304C0203185E2C5F2C6C2C8312D5
:1008C0000313CC01CD010030C1000030C000003066
:1008D000BF000030BE00CB01831203134C08C200DE
:1008E0004208D200521C752C762C782CC0177C2C18
:1008F0007F30C2004208C0055208C2000310420CFB
:10090000C3004308C1004B08C2004208C104202BA9
:1009100008008312031323088039A8002808AD00BB
:100920002308A8002807A9002908B300A21F992CB2
:100930009A2C9B2C3314330803199F2CA02CAF2C1A
:10094000330A031DA42CA52CAD2C0030A3000030CD
:10095000A2000030A1000030A000A217B72C003088
:10096000A3000030A2000030A1000030A000270842
:100970008039A8002808AD062708A8002807A90084
:100980002908B200A61FC52CC62CC72C3214320869
:100990000319CB2CCC2CDB2C320A031DD02CD12CF0
:1009A000D92C0030A7000030A6000030A500003090
:1009B000A400A617E32C0030A7000030A6000030EA
:1009C000A5000030A40032080319E72CE82CED2C18
:1009D0003308031DEC2CED2CF62C0030A300003066
:1009E000A2000030A1000030A000E92F2008A800DC
:1009F0002808F00026080A128A1545220A128A11D0
:100A0000710883120313B9007008B8003808A800F1
:100A1000A901AA01AB012B08B1002A08B0002908DE
:100A2000AF002808AE003908A800A901AA01AB014F
:100A30002B08B7002A08B6002908B5002808B4001A
:100A40002108A8002808F00025080A128A15452266
:100A50000A128A11710883120313B9007008B800D2
:100A60003808A800A901AA01AB012808AE07290887
:100A700003110318013E03193E2DAF072A08031185
:100A80000318013E0319452DB0072B080311031865
:100A9000013E03194C2DB1073908A800A901AA018C
:100AA000AB012808B407290803110318013E0319F4
:100AB0005A2DB5072A0803110318013E0319612DA9
:100AC000B6072B0803110318013E0319682DB70759
:100AD0002208A8002808F00024080A128A154522D6
:100AE0000A128A11710883120313B9007008B80042
:100AF0003808A800A901AA01AB012808AE072908F7
:100B000003110318013E0319862DAF072A080311AC
:100B10000318013E03198D2DB0072B08031103188C
:100B2000013E0319942DB1073908A800A901AA01B3
:100B3000AB012808B407290803110318013E031963
:100B4000A22DB5072A0803110318013E0319A92D88
:100B5000B6072B0803110318013E0319B02DB70780
:100B60000830A8000310AE0DAF0DB00DB10DA80BED
:100B7000B22D2108A8002808F00024080A128A15BE
:100B800045220A128A11710883120313B9007008F2
:100B9000B8003808A8003908A900AA01AB01280844
:100BA000AE07290803110318013E0319D82DAF071A
:100BB0002A0803110318013E0319DF2DB0072B0883
:100BC00003110318013E0319E62DB1072008A80000
:100BD0002808F00025080A128A1545220A128A11EF
:100BE000710883120313B9007008B8003808A80010
:100BF0003908A900AA01AB012808AE07290803118A
:100C00000318013E0319052EAF072A080311031824
:100C1000013E03190C2EB0072B0803110318013EE7
:100C20000319132EB1070830A8000310AE0DAF0D45
:100C3000B00DB10DA80B152E2008A8002808F00053
:100C400024080A128A1545220A128A117108831291
:100C50000313B9007008B8003808A8003908A900C3
:100C6000AA01AB012808AE07290803110318013EA9
:100C700003193B2EAF072A0803110318013E03197D
:100C8000422EB0072B0803110318013E0319492E09
:100C9000B1072108A8002808F00026080A128A15C2
:100CA00045220A128A11710883120313B9007008D1
:100CB000B8003808A8003908A900AA01AB01280823
:100CC000B407290803110318013E0319682EB5075C
:100CD0002A0803110318013E03196F2EB6072B08CB
:100CE00003110318013E0319762EB7072208A80046
:100CF0002808F00025080A128A1545220A128A11CE
:100D0000710883120313B9007008B8003808A800EE
:100D10003908A900AA01AB012808B4072908031162
:100D20000318013E0319952EB5072A08031103186D
:100D3000013E03199C2EB6072B0803110318013E30
:100D40000319A32EB7072208A8002808F0002608D8
:100D50000A128A1545220A128A1171088312031396
:100D6000B9007008B8003808A8003908A900AA011D
:100D7000AB0108300310A80DA90DAA0DAB0DFF3E65
:100D8000031DBA2E2808B407290803110318013ED1
:100D90000319CB2EB5072A0803110318013E0319C6
:100DA000D22EB6072B0803110318013E0319D92EC2
:100DB000B7072E08A8002F08A9003008AA0031089C
:100DC000AB0018300310AB0CAA0CA90CA80CFF3E0A
:100DD000031DE22E2808B407290803110318013E59
:100DE0000319F32EB5072A0803110318013E03194E
:100DF000FA2EB6072B0803110318013E0319012F21
:100E0000B7070830A8000310AE0DAF0DB00DB10D3F
:100E1000A80B032F33083207A800A901A90D280841
:100E2000823EB80029080318013EFF3EB900352F65
:100E30000130A8000310B40DB50DB60DB70DA80B09
:100E40001A2FB11F242F252F262F34140130A8006C
:100E50000310AE0DAF0DB00DB10DA80B282FFF3054
:100E6000B8070318B90AFF30B907B61F382F392F52
:100E7000182FB201B11F3D2F3E2F5A2FFF302E05E4
:100E8000A800FF302F05A900FF303005AA007F30F1
:100E90003105AB002B082A04290428040319512F1B
:100EA000522F552FB201B20A5A2F341C582F592FE6
:100EB0005A2F522F320803195E2F5F2F902F0130C7
:100EC000B407003003180130B507003003180130B3
:100ED000B607003003180130B707371C702F712F89
:100EE000902F3408A8003508A9003608AA00370852
:100EF000AB000130AC002B0DAB0CAA0CA90CA80C5C
:100F0000AC0B7B2F2B08B7002A08B6002908B500C8
:100F10002808B4000130B8070318B90A0030B9072F
:100F20003908803AFF0080307F02031D992FFF307F
:100F30003802031C9C2F9D2FA82F7F308312031390
:100F4000B7008030B6000030B5000030B400DD2FAF
:100F5000831203133908803AFF0080307F02031D9B
:100F6000B32F013038020318B62FB72FC32F00302C
:100F700083120313B7000030B6000030B500003014
:100F8000B400AD01DD2F831203133808A800280830
:100F9000B300FF30B405FF30B5057F30B605003033
:100FA000B705331CD42FD52FD62FB6173308A8007A
:100FB0000310280CA9002908B7002D08A80028084C
:100FC000B7043708A3003608A2003508A10034088A
:100FD000A000080083120313ED01EE018316031332
:100FE000A001A101A201A301A401A501A601A701DD
:100FF000A801A901AA01AB0183010A128A15BF2E1B
:101000004E34683461346E3420347034683469345A
:101010006D342034643465342034633468346F3480
:101020006E34203463346134633420346334683480
:101030007534633420346E3461346E346734203454
:1010400073346134753420346434613479343A341F
:10105000203400345734413452344E3449344E3401
:101060004734213420346E34683469346534743440
:10107000203464346F342034743472346F346E34FA
:10108000673420346334683475346F346E346734B5
:10109000203471347534613420345434483441344C
:1010A0005034213400345734413452344E344934AE
:1010B0004E344734213420346E3468346934653416
:1010C0007434203464346F342034743472346F34A4
:1010D0006E34673420346334683475346F346E345E
:1010E00067342034713475346134203443344134EE
:1010F0004F34213400345734413452344E3449345F
:101100004E3447342134203464346F342034613415
:101110006D342034743472346F346E346734203458
:101120006334683475346F346E346734203471340A
:1011300075346134203454344834413450342134CB
:1011400000342034203431343A3420344834693483
:1011500065346E3420347434683469342034743423
:10116000723461346E3467342034743468346134DA
:1011700069342034743472346F346E3467342034FC
:101180006334683475346F346E34673400345734E4
:10119000413452344E3449344E34473421342034AF
:1011A00064346F34203461346D34203474347234D8
:1011B0006F346E34673420346334683475346F347C
:1011C0006E346734203471347534613420344334E0
:1011D00041344F34213400344E346834693465343A
:1011E0007434203464346F342034683469346534A2
:1011F0006E3420347434613469342034743472347D
:101200006F346E34673420346334683475346F342B
:101210006E3467343A342034003444346F3420342C
:1012200061346D3420346834693465346E3420346C
:101230007434613469342034743472346F346E34ED
:10124000673420346334683475346F346E346734F3
:101250003A342034003442346C3475346534743498
:101260006F346F347434683420346434613420341F
:10127000643475346F34633420346B3465347434BF
:1012800020346E346F3469340034203420343334E5
:101290003A34203442346134743420347134753437
:1012A000613474342034673469346F34003420344A
:1012B000203434343A342034543461347434203497
:1012C00071347534613474342034673469346F3464
:1012D00000345134753461347434203454346834F7
:1012E0006F346E3467342034473469346F343A34A1
:1012F000203400344C3475346F346E346734203409
:101300007434683475346334203461346E343A3460
:1013100020340034443461346E3467342034633410
:1013200068346F34203461346E342E342E342E34CD
:101330002134003444346134203442346134743410
:10134000203471347534613474342E342E342E3498
:1013500021340034443461342034743461347434BE
:10136000203471347534613474342E342E342E3478
:10137000213400344D3461347934203462346F3494
:101380006D3420346E3475346F3463343A34203421
:1013900000342034203432343A3420344334683436
:1013A0006F34203467346134203461346E34003457
:1013B0004E346834693465347434203464346F34A2
:1013C00020343D34203400345434523455344E34B7
:1013D00047342034423449344E34483400344434A1
:1013E0006F34203461346D3420343D342034003483
:1013F0004434413420344834453454340034433484
:101400004F344E342034493454340034443441345D
:1014100059342034443455340034203464346F3427
:101420002034433400344F344634463400342034BE
:0A143000253400344F344E340034EC
:10143E00342A7608FF00750884000A168A110020E7
:10144E000A128A150A168A11E3260A128A15013023
:10145E00F5070318F60A0030F60776088312031311
:10146E00FF00750884000A168A1100200A128A15D8
:10147E00003A031D432A442A202A0800F800F401EA
:10148E00F5017008F200F3017208F6007308F70018
:10149E00781C522A532A592A7608F4070318F50A9B
:1014AE007708F50701300310F60DF70DFF3E031D0B
:1014BE005A2A0310F80C7808031D662A672A4F2A49
:1014CE007508F1007408F0000800F201F3018312B0
:1014DE00031386170730F1007D30F000F00B752AEC
:1014EE00F10B752A8312031386137D30F100AB3096
:1014FE00F000F00B802AF10B802A852A0130F207CA
:10150E000318F30A0030F307003073023230031968
:10151E007202031C932A942A6E2A0800F201F30128
:10152E008312031386170A30F100BC30F000F00B63
:10153E009E2AF10B9E2A0000831203138613793024
:10154E00F1001F30F000F00BAA2AF10BAA2AAF2AE5
:10155E000130F2070318F30A0030F307003073026C
:10156E00323003197202031CBD2ABE2A972A0800C4
:10157E00831603130610831203130610C330F100F3
:10158E00CD30F000F00BC92AF10BC92A83120313D8
:10159E0006148316031306144230F000F00BD52AFE
:1015AE000000831203130618DD2ADE2AEC2A85308A
:1015BE00F000F00BE02A83120313061CE72AE82A38
:1015CE00EC2A8530F000F00BEA2A08004C3083122A
:1015DE0003136D02031CF42AF52A132BC730FC00EB
:1015EE008830FD000A168A11DA270A128A150A16A1
:1015FE008A1111270A128A150D3083120313A500C2
:10160E00AF30A400B530A300A30B0B2BA40B0B2BF8
:10161E00A50B0B2B122B232B37306D020318182B17
:10162E00192B232B7B30FC008830FD000A168A1103
:10163E00DA270A128A15FE2A0800243083120313B1
:10164E006E02031C2B2B2C2B4A2B5330FC008830A4
:10165E00FD000A168A11DA270A128A150A168A114D
:10166E0011270A128A150D3083120313A500AF300D
:10167E00A400B530A300A30B422BA40B422BA50B49
:10168E00422B492B5A2B0F306E0203184F2B502B27
:10169E005A2B2A30FC008830FD000A168A11DA27F0
:1016AE000A128A15352B0800831603132508803A73
:1016BE00FF0080307F02031D662B1D3024020318AD
:1016CE00692B6A2B6E2B831203138610802B8316C5
:1016DE0003132508803AFF0080307F02031D792B0B
:1016EE0023302402031C7C2B7D2B802B83120313AF
:1016FE008614831603132108803AFF0080307F0280
:10170E00031D8B2B4B302002031C8E2B8F2B942B07
:10171E000A168A11C2260A128A1508000030FC0029
:10172E008830FD000A168A11DA270A128A150A165F
:10173E008A1111270A128A15A130FC008830FD008B
:10174E000A168A11DA270A128A150A168A11112721
:10175E000A128A15C930FC008930FD000A168A115A
:10176E00DA270A128A150A168A1111270A128A1501
:10177E004530FC008930FD000A168A11DA270A125C
:10178E008A150A168A1111270A128A155730FC007B
:10179E008930FD000A168A11DA270A128A150A16EE
:1017AE008A1111270A128A150800F601F31FE02B81
:1017BE00E12BE82BF209F309F20A0319F30AF601F9
:1017CE00F60AF11FEB2BEC2BF12BF009F109F00AC5
:1017DE000319F10A700871040319F62BF72B262C46
:1017EE00F501F50A052C01300310F00DF10DFF3E49
:1017FE00031DFB2B0130F4007408F507F11F082CB4
:10180E00092CFA2B71087302031D0F2C700872023B
:10181E00031C122C132C192C7008F2027108031CD5
:10182E00F303F30201300310F10CF00CFF3E031D25
:10183E001A2C0130F502031D252C262C092C7608B6
:10184E0003192A2C2B2C302CF209F309F20A031956
:10185E00F30A7308F1007208F000080083120313F4
:10186E00A2000A30F0000030F1002208F900FA015F
:10187E007908F2007A08F3000A128A15DC230A129C
:10188E008A157008303EFB007B0883120313A100FB
:10189E000A30F0000030F1002208F900FA01790850
:1018AE00F2007A08F3000A128A15F9240A128A1530
:1018BE007008FB007B0883120313A2000A30F000AD
:1018CE000030F1002208F900FA017908F2007A08D6
:1018DE00F3000A128A15DC230A128A157008303EAC
:1018EE00FB007B0883120313A0000A30F0000030C7
:1018FE00F1002208F900FA017908F2007A08F300E3
:10190E000A128A15F9240A128A157008FB007B0840
:10191E0083120313A200A2012030080083160313C2
:10192E0088018312031388108230F500DD30F40035
:10193E00F40B9F2CF50B9F2CA42C03300A128A114A
:10194E0003200A128A154130F500EE30F400F40B34
:10195E00AE2CF50BAE2C000003300A128A110320B8
:10196E000A128A154130F500EE30F400F40BBD2C4E
:10197E00F50BBD2C000003300A128A1103200A1247
:10198E008A154130F500EE30F400F40BCC2CF50B3B
:10199E00CC2C000002300A128A1103200A128A157A
:1019AE004130F500EE30F400F40BDB2CF50BDB2CA4
:1019BE00000028300A168A1137270A128A150C30B1
:1019CE000A168A1137270A128A1506300A168A1144
:1019DE0037270A128A1501300A168A1137270A127A
:1019EE008A150800F601F11FFD2CFE2C052DF009BD
:1019FE00F109F00A0319F10AF601F60AF31F082D90
:101A0E00092D122DF209F309F20A0319F30A013016
:101A1E00F4007408F606F701F80170087104031952
:101A2E00192D1A2D512DF501F50A282D013003100F
:101A3E00F00DF10DFF3E031D1E2D0130F400740854
:101A4E00F507F11F2B2D2C2D1D2D01300310F70D39
:101A5E00F80DFF3E031D2D2D71087302031D392D48
:101A6E0070087202031C3C2D3D2D442D7008F202AD
:101A7E007108031CF303F302771401300310F10C09
:101A8E00F00CFF3E031D452D0130F502031D502DB8
:101A9E00512D2C2D76080319552D562D5B2DF7093A
:101AAE00F809F70A0319F80A7808F1007708F00028
:101ABE0008003130831603132A062B04031D682DEC
:101ACE00692D722D0A128A11BF210A128A158316E8
:101ADE000313AA01AB0132302A062B04031D782D05
:101AEE00792D902D0A168A114D270A128A15831602
:101AFE000313AA01AB018A30FC008930FD000A16DF
:101B0E008A11DA270A128A150A168A1111270A1261
:101B1E008A153330831603132A062B04031D982DC2
:101B2E00992DB02D0A168A11C2260A128A1583160D
:101B3E000313AA01AB019A30FC008930FD000A168E
:101B4E008A11DA270A128A150A168A1111270A1221
:101B5E008A153430831603132A062B04031DB82D61
:101B6E00B92DD02D0A168A11BE260A128A15831691
:101B7E000313AA01AB01AA30FC008930FD000A163E
:101B8E008A11DA270A128A150A168A1111270A12E1
:101B9E008A150800F701F60183120313061CD82DCF
:101BAE00D92DD32D5330F000F00BDB2D8312031300
:101BBE00061CE22DE32D062E7708F0007007A03EDE
:101BCE00840083130008F100840A0008F200031059
:101BDE00F10DF20D01307104F30000307204F400C7
:101BEE007708F5007507A03E840073088000840A0C
:101BFE00740880000618042E052E012E1E2E77085E
:101C0E00F0007007A03E840083130008F100840AE0
:101C1E000008F2000310F10DF20D7708F3007307C0
:101C2E00A03E840071088000840A72088000013092
:101C3E00F0007008F60708307602031C272E282EB7
:101C4E00D32D0130F0007008F70705307702031C22
:101C5E00312E322ED22D831603132408F000700875
:101C6E0083120313EE00831603132008F00070088E
:101C7E0083120313ED000800031083120313560D95
:101C8E00570DD8005808DE005E08031D4F2E502E4B
:101C9E00592E0030D7000030D6000030D50000306D
:101CAE00D400BE2E5408D8005508D9005608DA00C4
:101CBE005708DB001F300310DB0CDA0CD90CD80CE4
:101CCE00FF3E031D622E5808DC005C08DD00D617AF
:101CDE00FF30D405FF30D505FF30D6050030D705CF
:101CEE009630DE02DE1F7C2E7D2E972E5E08803A09
:101CFE00973E0318832E842E852E502E013003100E
:101D0E00D70CD60CD50CD40CFF3E031D862E0130FD
:101D1E00D8005808DE07031D952E962E852EAE2E62
:101D2E0020305E02031C9C2E9D2EA92E502E0130BB
:101D3E00D8000310D40DD50DD60DD70DD80BA02E6F
:101D4E000130DE025E08031DAD2EAE2E9E2E5D0806
:101D5E000319B22EB32EBE2ED409D509D609D70932
:101D6E00D40A0319D50A0319D60A0319D70A08008B
:101D7E008316031388010A128A1595240A128A15EE
:101D8E002030831203139000831603130711871557
:101D9E0086108312031386140A168A11CF260A128E
:101DAE008A150A168A11C6260A128A158316031375
:101DBE0086130A168A1165270A128A152B30FC0023
:101DCE008930FD000A168A11DA270A128A150A16B8
:101DDE008A1111270A128A150A128A15BF220A12AF
:101DEE008A150A128A15D1250A128A150A128A151F
:101DFE005A270A128A150A128A11BF210A128A1547
:101E0E000A128A1595230A128A151A3083120313A1
:101E1E00EC005E30EB006D30EA00EA0B142FEB0B9A
:101E2E00142FEC0B142F1B2F0A168A1123270A12BC
:101E3E008A1583120313EA00EB016A088316031353
:101E4E00AA00831203136B0883160313AB000A1246
:101E5E008A15BF220A128A150A128A15D1250A126C
:101E6E008A150A128A1560250A128A150A128A150F
:101E7E005A270A128A150A168A11D9260A128A15A3
:101E8E000A168A117F270A128A150A128A15242326
:101E9E000A128A150A128A15ED220A128A150C2FB9
:101EAE000A128A1100280A168A1101270A128A15A7
:101EBE000A128A155B230A128A15D830F50089306A
:101ECE00F6000A128A151F220A128A150D30F90021
:101EDE007908FA007A08F9007908F40000300A1639
:101EEE008A1199270A128A150A30F0000030F10083
:101EFE00831603132508F3002408F2000A128A152C
:101F0E00DC230A128A157008303E0A168A11E3265F
:101F1E000A128A150A30F0000030F10083160313FE
:101F2E002508F3002408F2000A128A15F9240A1271
:101F3E008A15710883160313A5007008A4000130DA
:101F4E00FA020C307A020318AD2FAE2F712FF40166
:101F5E0001300A168A1199270A128A15EF30F500F8
:101F6E008930F6000A128A151F220A128A150D30C0
:101F7E00F9007908FB007B08F9007908F4000130BC
:101F8E000A168A1199270A128A150A30F0000030B3
:101F9E00F100831603132108F3002008F2000A1241
:101FAE008A15DC230A128A157008303E0A168A1129
:101FBE00E3260A128A150A30F0000030F10083166B
:101FCE0003132108F3002008F2000A128A15F924DF
:101FDE000A128A15710883160313A1007008A00057
:101FEE000130FB020C307B020318FE2FFF2FC22F95
:101FFE000800FF1B0A2883137F1883170008840A22
:10200E000319FF0A08007F087F398A000408840A32
:06201E000319FF0A820015
:102D7C0083120313061108008312031306150800AF
:102D8C008316031306118611831203130611861181
:102D9C0008008316031306168612061383120313F8
:102DAC0086120613080083120313061EDE2EDF2E76
:102DBC00E12E0613E22E06170800F400831203130B
:102DCC00881474080A168A1137270A168A11831276
:102DDC00031388100800F000700883120313990085
:102DEC000C1EF92EFA2EF62E83160313981CFF2EAA
:102DFC00002FFA2E080001300A168A1137270A16FE
:102E0C008A112130F5007630F400F40B0B2FF50B02
:102E1C000B2F000008000D308312031399000D30A6
:102E2C00F200AF30F100B630F000F00B1B2FF10BBD
:102E3C001B2FF20B1B2F0000080083120313981C8E
:102E4C00282F292F2B2F181218168C1E2E2F2F2FB0
:102E5C00352F8C1E322F332F2F2F1A08362F003080
:102E6C000800F3007308F20004300310F20CFF3E6C
:102E7C00031D3B2F72080A128A1103200A168A11AD
:102E8C0073080A128A1103200A168A1108000A1202
:102E9C008A1595220A168A113330F600BB30F500DC
:102EAC00DF30F400F40B582FF50B582FF60B582F7E
:102EBC005F2F0A128A156C220A168A1108008316D3
:102ECC0003130717871718158130990018128312EE
:102EDC0003139817181383160313181398168312D9
:102EEC00031318168B170B17831603138C160C165B
:102EFC0008000A128A1152200A168A11831203132F
:102F0C006008803AFF0080307F02031D8F2F0A304B
:102F1C005F02031C922F932F982F0A168A114D27AC
:102F2C000A168A110800F6007608031D9E2F9F2FA3
:102F3C00A52F7408803EF5007508F700AA2F7408B9
:102F4C00C03EF5007508F70077080A168A11372776
:102F5C000A168A115330F500F50BB22F08000A122D
:102F6C008A1152200A168A11831203135F08E60095
:102F7C006608E7000B306702031CC52FC62FC82F4D
:102F8C000130D92F08306702031CCD2FCE2FD02F44
:102F9C000230D92F07306702031CD52FD62FD82F1C
:102FAC000330D92F00300800EF2F7D08FF007C087C
:102FBC0084000A168A1100200A168A110A168A1130
:102FCC00F1260A168A110130FC070318FD0A00309D
:102FDC00FD077D0883120313FF007C0884000A168A
:102FEC008A1100200A168A11003A031DFE2FFF2FAA
:042FFC00DB2F0800BF
:02400E00723FFF
:00000001FF
